:100000000C9446000C945D000C945D000C945D0013
:100010000C945D000C945D000C945D000C945D00EC
:100020000C945D000C945D000C945D000C945D00DC
:100030000C945D000C945D000C945D000C945D00CC
:100040000C945D000C945D000C945D000C945D00BC
:100050000C945D000C945D000C945D000C945D00AC
:100060000C945D000C945D000C945D000C945D009C
:100070000C945D000C945D000C945D000C945D008C
:100080000C945D000C945D000C945D0011241FBE67
:10009000CFEFD0E1DEBFCDBF11E0A0E0B1E0E4ECF6
:1000A000F2E000E00BBF02C007900D92A835B10747
:1000B000D9F70E94C5000C9460010C940000D99AF5
:1000C00085E08A95F1F70000D99887EC90E00197D8
:1000D000F1F700C0000008950F931F93CF938C0198
:1000E000F801C1918F01C11104C0CF911F910F91EF
:1000F0000895D89A8BB38F709C2F907F892B8BBBE0
:100100000E945F002BB32F7030E1C39FC001112408
:10011000822B8BBB0E945F0087EC90E00197F1F788
:1001200000C00000DDCFCF93DF93C82FD8989BB3DA
:100130009F70807F982B9BBB0E945F008BB38F705A
:1001400090E1C99FE00111248C2B8BBB0E945F00C2
:100150008FE39FE10197F1F700C00000DF91CF919D
:100160000895CF93DF9300D0CDB7DEB790E89983A1
:1001700090EC9A838C0F9D2F911DFC0181810F9033
:100180000F90DF91CF910C9493008AB3836F8ABB59
:100190002FEF89EF90E0215080409040E1F700C0C0
:1001A0000000D8988BB38F7080628BBB0E945F0079
:1001B00088E20E9493008CE00E94930086E00E94F7
:1001C000930081E00E9493008FE39FE10197F1F794
:1001D00000C0000081B3807F81BB82B38F6082BB8F
:1001E00080E00E94B10080E091E00E946C0081E01C
:1001F0000E94B10080E191E00E946C0080992AC0C9
:100200009FEF29EF80E0915020408040E1F700C04F
:10021000000080991FC0809BFECFC1E0D0E081E04C
:100220000E94B10087E491E00E946C0081E00E948E
:10023000B10082E391E0C330D105F1F28DE391E0AA
:10024000C430D105C9F280E291E02297A9F688E294
:1002500091E0D2CF819910C09FEF29EF80E09150BB
:1002600020408040E1F700C00000819905C0819BDB
:10027000FECFC2E0D0E0D3CF829910C09FEF29EF2C
:1002800080E0915020408040E1F700C0000082995A
:1002900005C0829BFECFC3E0D0E0C1CF8399AECF33
:1002A0009FEF29EF80E0915020408040E1F700C0AF
:1002B00000008399A3CF839BFECFC4E0D0E0AFCFF3
:0402C000F894FFCFE0
:1002C4005455414E20313A2054455354204F4B004D
:1002D400505245535320425554544F4E2E2E2E0007
:1002E4004B45593A205550004B45593A20444F57F5
:1002F4004E004B45593A20454E544552004B455902
:100304003A204241434B002020202020202020205E
:08031400202020202020200001
:00000001FF
